:1000000023C03DC03CC03BC03AC01FC138C037C050
:1000100036C035C034C033C032C031C030C0010238
:100020000000040000000000000000003800000094
:100030000000370002020202020202020202010272
:10004000040810202004100811241FBECFE5D2E0C0
:10005000DEBFCDBF10E0A0E6B0E0E6EEF7E002C004
:1000600005900D92A036B107D9F720E0A0E6B0E0E8
:1000700001C01D92A137B207E1F731D1B2C3C0CFA1
:1000800090E0FC01E25CFF4F24918C5C9F4FFC01EF
:100090008491882399F090E0880F991FFC01E25D1C
:1000A000FF4FA591B491FC01E85DFF4F85919491BC
:1000B0008FB7F894EC91E22BEC938FBF089590E00A
:1000C000FC01E25EFF4F3491FC01E25CFF4F2491A2
:1000D000FC01EC5CFF4FE491EE23B9F0332329F0EF
:1000E000323001F198F43130C9F0F0E0EE0FFF1F2B
:1000F000E85DFF4FA591B4918FB7F894EC91611131
:1001000014C020952E232C938FBF0895333011F007
:10011000343059F78CB58F7D8CBDE7CF8AB58F779A
:100120008ABDE3CF8AB58F7DFBCF2E2BECCFCF934B
:10013000DF93EC0180E0A4DF209729F460E080E009
:10014000DF91CF91BCCFCF3FD10511F461E0F7CF64
:10015000EEE1F0E0E491E230B9F030F4E13069F042
:10016000C038D1059CF7EACFE33099F0E430C1F70D
:100170008CB580628CBDCBBD04C08AB580688ABD59
:10018000C9BDDF91CF9108958AB580628ABDC8BD8F
:10019000F8CF8CB580628CBDCEBDF3CF3FB7F8945D
:1001A0008091610090916200A0916300B091640021
:1001B00022B708B601FE05C02F3F19F00196A11D18
:1001C000B11D3FBFBA2FA92F982F8827BC01CD01A1
:1001D000620F711D811D911D43E0660F771F881FFF
:1001E000991F4A95D1F708958F929F92AF92BF922F
:1001F000CF92DF92EF92FF926B017C01CFDF4B0138
:100200005C01C114D104E104F104B1F0C7DF681945
:1002100079098A099B09683E73408105910588F335
:1002200021E0C21AD108E108F10888EE880E83E0C7
:10023000981EA11CB11CE5CFFF90EF90DF90CF90EE
:10024000BF90AF909F908F9008951F920F920FB61E
:100250000F9211242F933F938F939F93AF93BF934C
:100260008091650090916600A0916700B091680050
:100270003091600026E0230F2D3758F50296A11D1E
:10028000B11D209360008093650090936600A09359
:100290006700B09368008091610090916200A09126
:1002A0006300B09164000196A11DB11D80936100AF
:1002B00090936200A0936300B0936400BF91AF91EC
:1002C0009F918F913F912F910F900FBE0F901F9094
:1002D000189529E8230F0396A11DB11DD2CF78945C
:1002E0008AB582608ABD8AB581608ABD83B7826023
:1002F00083BF83B7816083BF89B7826089BF80B7BE
:10030000826080BF80B7816080BF329A319A309816
:10031000379A8CB580648CBD85EB81BF80E0B0DE00
:1003200081E0AEDE60E081E0CADE0AE010E0D0E00D
:10033000C0E042E0F42EF7B8369A3699FECF94B179
:1003400085B1892798278927C80FD91F61E070E0F8
:1003500080E090E049DF0150110969F7CE016AE0C1
:1003600070E018D2072E000C880B990B29E130E0C1
:1003700040E050E0C3D0C8E1D0E0611524E6720748
:100380008105910584F4C1E0D0E0611524E0720795
:100390008105910544F03AE09595879577956795A5
:1003A0003A95D1F7EB01CE0160E17EE0E2D168EE53
:1003B00073E0DFD1092E000CAA0BBB0B80936D00FC
:1003C00090936E00A0936F00B093700010E000E077
:1003D00028ECE22EF12C0115110521F498EEE92EFE
:1003E00093E0F92ED12CC12CC601A1DE61E070E0B2
:1003F00080E090E0F9DE85E0C80ED11C2FEFC21638
:10040000D10491F7B701FF0C880B990B26D126E692
:1004100036E646ED50E48BD0F2D0E6DEEE24EA94E8
:10042000F12CC70184DE61E070E080E090E0DCDE6A
:1004300085E0E81AF108A9F760E080E040DE6DE1B0
:1004400070E080E090E0D0DE0F5F1F4F0C171D07BB
:100450000CF4BECF61E081E032DE2FB7F8948091DA
:10046000650090916600A0916700B09168002FBF71
:1004700040916D0050916E0060916F00709170001E
:10048000840F951FA61FB71F885A9844A109B10968
:100490008093690090936A00A0936B00B0936C0006
:1004A00062E379EE80E090E09FDE61E080E007DECD
:1004B00061E070E080E090E097DE60E080E0FFDDEA
:1004C0006CE270E080E090E08FDE2FB7F8948091CE
:1004D000650090916600A0916700B09168002FBF01
:1004E0004091690050916A0060916B0070916C00BE
:1004F00084179507A607B70798F2FFCFEE27FF27C7
:10050000AA27BB2708C0A20FB31FE41FF51F220FA5
:10051000331F441F551F969587957795679598F3D8
:100520007040A9F7009799F7BD01CF0108950CD04D
:10053000E6C0DED040F0D5D030F021F45F3F19F0B6
:10054000C7C0511110C1CAC0EBD098F39923C9F3A9
:100550005523B1F3951B550BBB27AA2762177307C9
:10056000840738F09F5F5F4F220F331F441FAA1F7D
:10057000A9F333D00E2E3AF0E0E830D0915050403D
:10058000E695001CCAF729D0FE2F27D0660F771FEB
:10059000881FBB1F261737074807AB07B0E809F0CD
:1005A000BB0B802DBF01FF2793585F4F2AF09E3F62
:1005B000510568F08DC0D7C05F3FECF3983EDCF387
:1005C000869577956795B795F7959F5FC9F7880FDB
:1005D000911D9695879597F90895E1E0660F771F2D
:1005E000881FBB1F621773078407BA0720F0621BBE
:1005F000730B840BBA0BEE1F88F7E095089598D023
:1006000088F09F5790F0B92F9927B751A0F0D1F0FB
:10061000660F771F881F991F1AF0BA95C9F712C085
:10062000B13081F09FD0B1E008959CC0672F782F42
:100630008827B85F39F0B93FCCF3869577956795F1
:10064000B395D9F73EF490958095709561957F4F5D
:100650008F4F9F4F0895E89409C097FB3EF4909503
:100660008095709561957F4F8F4F9F4F9923A9F08B
:10067000F92F96E9BB279395F6958795779567951A
:10068000B795F111F8CFFAF4BB0F11F460FF1BC05E
:100690006F5F7F4F8F4F9F4F16C0882311F096E9F1
:1006A00011C0772321F09EE8872F762F05C066239F
:1006B00071F096E8862F70E060E02AF09A95660F58
:1006C000771F881FDAF7880F9695879597F9089511
:1006D00097F99F6780E870E060E008959FEF80ECF5
:1006E000089500240A941616170618060906089598
:1006F00000240A9412161306140605060895092EFE
:100700000394000C11F4882352F0BB0F40F4BF2B6C
:1007100011F460FF04C06F5F7F4F8F4F9F4F0895AC
:1007200057FD9058440F551F59F05F3F71F04795A2
:10073000880F97FB991F61F09F3F79F08795089587
:10074000121613061406551FF2CF4695F1DF08C0A6
:10075000161617061806991FF1CF869571056105C3
:1007600008940895E894BB2766277727CB0197F96B
:1007700008950024552704C0080E591F880F991F9B
:10078000009729F076956795B8F37105B9F7802D34
:10079000952F089597FB072E16F4009406D077FD49
:1007A00008D00BD007FC05D03EF4909581959F4F63
:1007B0000895709561957F4F0895AA1BBB1B51E169
:1007C00007C0AA1FBB1FA617B70710F0A61BB70BC1
:1007D000881F991F5A95A9F780959095BC01CD0166
:0607E0000895F894FFCF1C
:00000001FF
